:020000040800F2
:10000000F0FF0120E958060805E30508496C0208DD
:100010006159060861590608615906080000000088
:1000200000000000000000000000000009E30508D7
:100030000DE305080000000011E30508B54C0208B7
:100040006159060861590608615906086159060890
:10005000615906086159060899360208A136020856
:10006000A9360208B1360208B9360208E1D80008FC
:10007000F1D8000801D9000815D9000829D90008CD
:100080003DD9000851D90008615906080000000058
:10009000000000000000000000000000C13602085F
:1000A00059680208F167020869680208E1670208F6
:1000B00019680208296802083968020851CA00084C
:1000C00035CF000859CA000839CF00086159060821
:1000D000615906082D4C0208394C02080000000046
:1000E000C936020861590608BDE90508000000008C
:1000F00000000000000000000000000065D90008BA
:100100000000000001000108496802086159060862
:1001100000000000000000000000000000000000DF
:1001200079D900088DD90008A1D90008B5D90008EF
:10013000C9D9000800000000000000000000000015
:1001400000000000000000000000000015E30508AA
:10015000DDD90008F1D9000805DA0008454C02088D
:1001600061CA00083DCF0008000000000000000048
:10017000000000000000000000000000000000007F
:1001800000000000615906080000000000000000A7
:080190006159060861590608D7
:080198007C5406000100000088
:1001A0000A90010024000000E02F0020504D0020A4
:1001B000000000005D2204084C4D002014020100E4
:1001C00005000000DC450020784D00200000000004
:1001D000E0780708744D0020160215003F0000006B
:1001E00024390020844D0020000000003D940108C7
:1001F000804D002006200100260000007030002005
:10020000C84D00200000000045930108C44D0020A7
:10021000FA01010004000000346900203068002069
:10022000000000002D9301082C680020FF21010030
:100230000500000024610020386800200000000054
:10024000099401083468002005300100080000000E
:10025000506300204468002000000000E878070890
:100260004068002013020100040000004C630020DD
:100270005068002000000000F07807084C6800205B
:100280000B3001001A000000885F00206868002021
:1002900000000000F4780708646800201F50010087
:1002A00024000000645F0020886800200000000037
:1002B00010790708846800202B0201000C00000060
:1002C00054500020B0680020000000003479070876
:1002D000AC6800201E02010006000000645A0020E5
:1002E000C06800200000000040790708BC680020BA
:1002F0000D1201001400000028620020CC680020CC
:100300000000000048790708C868002003110100B8
:100310000A000000A0590020E4680020000000004E
:1003200015210508E06800200B2201003D000000B7
:1003300044520020F4680020000000005C790708A7
:10034000F068002015001000700000005CAE002076
:10035000D4AE00200000000000000000D0AE00205D
:100360002A00080060000000FCAD002048AF00201B
:10037000000000000527040844AF00202C00040002
:1003800010000000ECAD0020ACAF00200000000029
:1003900009130408A8AF002025201E002C0100002E
:1003A000C0AC0020C0AF0020000000000000000032
:1003B000BCAF00202B0012002400000078AC00200D
:1003C000F0B000200000000019130408ECB0002079
:1003D00029201400780000006C98002018B100203B
:1003E000000000000000000014B1002028300100CF
:1003F000160000000098002094B1002000000000CA
:100400004528040890B100201E10010009000000DA
:10041000F0970020B0B10020000000009C79070890
:10042000ACB100200D1001004C000000A09700208E
:10043000C0B10020000000000F770208BCB100200E
:100440000C500400800000000891002010B2002031
:10045000000000005DED02080CB200200120010048
:100460000C0000008891002094B2002000000000E1
:10047000A679070890B200202700010004000000C0
:10048000FC910020A4B2002000000000B27907080F
:10049000A0B200202320010010000000EC910020F9
:1004A000ACB200200000000049220408A8B20020DD
:1004B0000E50040058020000AC8E0020C0B2002094
:1004C00000000000E5260408BCB200202202010062
:1004D0001C010000E09A00201CB500200000000074
:1004E000F5A9010818B500201F020800100000003F
:1004F0004CB600203CB60020000000001994010812
:1005000038B600201B0201001000000070B6002069
:1005100060B6002000000000D19301085CB6002006
:10052000280204000400000088B6002084B60020E1
:1005300000000000C593010880B6002027020400D7
:100540000400000094B6002090B6002000000000D7
:10055000B99301088CB600201C0202001C000000A8
:10056000189800209CB60020000000002D9B010878
:1005700098B600201A0201003C000000F8B60020E6
:10058000BCB6002000000000059C0108B8B60020A1
:100590000400080080000000309E002038B70020D2
:1005A000000000000000000034B700201902010024
:1005B00010000000FC980020BCB7002000000000E4
:1005C000F9930108B8B70020081203000F000000DB
:1005D000C09E0020D0B7002000000000C19201089A
:1005E000CCB70020031201003D000000689F0020EE
:1005F000E4B7002000000000B6790708E0B700204B
:10060000010201000A00000070A2002028B80020AA
:10061000000000001D93010824B800200C02010016
:1006200004000000D09E002038B800200000000028
:100630003593010834B80020FD1701009A0000002E
:1006400080A2002040B8002000000000FBC3040886
:100650003CB800201310010004000000FC970020AB
:10066000E0B8002000000000F4790708DCB80020A2
:1006700002020100030000006CA20020E8B8002084
:100680000000000000000000E4B80020F5C10100F7
:10069000740000006C9A0020F0B8002000000000F8
:1006A000ADE60408ECB80020F62101000C000000C3
:1006B0001499002068B9002000000000F8790708AC
:1006C00064B9002012120100040000009CE3002025
:1006D00078B9002000000000047A070874B90020EF
:1006E0001102010008000000A0E3002080B90020F2
:1006F00000000000087A07087CB9002034000100DF
:1007000010000000A8E300208CB9002000000000C9
:10071000C90D040888B90020F83101000600000066
:1007200090970020A0B9002000000000107A070870
:100730009CB90020020001000C000000209F002056
:10074000ACB900200000000000000000A8B90020A3
:10075000FE01010016000000E4980020BCB9002052
:1007600000000000A9920108B8B900200612030099
:10077000120000000C9F0020D8B9002000000000EB
:10078000B59A0108D4B90020F70101000600000065
:100790000C990020F0B9002000000000167A07082C
:1007A000ECB90020FC01010009000000B8E30020C2
:1007B000FCB9002000000000E5930108F8B9002012
:1007C000FB01010001000000C4E300200CBA00207E
:1007D00000000000F193010808BA00201A0001008F
:1007E0000E000000B09E002014BA0020000000009F
:1007F0001C7A070810BA0020140001000500000050
:100800009897002028BA0020000000002A7A0708E4
:1008100024BA0020FD01010024000000A29D002058
:1008200034BA0020000000000B12020830BA002089
:100830001D020200060000009C9D00205CBA002002
:10084000000000000000000058BA0020184001001D
:10085000380000003498002068BA00200000000032
:10086000719C010864BA0020F90101000400000035
:10087000C8E30020A4BA002000000000C51102084F
:10088000A0BA00201230010010000000C88D002026
:10089000ACBA002000000000307A0708A8BA002097
:1008A0000E02010002000000C8E5002024E600203E
:1008B00000000000407A070820E600202F200100F9
:1008C000220000002CE60020CCE500200000000003
:1008D000427A070828E600202630010008000000C0
:1008E000ACF40020B8F4002000000000251D05082D
:1008F000B4F400202052010008000000A4F40020FD
:10090000C4F4002000000000647A0708C0F400204E
:100910002A120100080000009CF40020D0F40020FE
:10092000000000006C7A0708CCF400203840010079
:100930000600000060E70020DCF40020000000005A
:10094000747A0708D8F4002037400100280000001E
:100950004CE80020E8F40020000000007A7A070844
:10096000E4F40020162001000600000074EF0020CF
:1009700014F5002000000000A27A070810F50020FE
:100980001010010002000000A4ED002020F500205E
:1009900000000000A87A07081CF5002019000100DB
:1009A000050000000CF3002028F5002000000000E6
:1009B000AA7A070824F500200502010004000000BF
:1009C000C4F6002004FF002000000000B07A0708F1
:1009D00000FF00202C0201000400000040F700206E
:1009E0002CFF002000000000B47A070828FF002038
:1009F0002D02010001000000CCF6002034FF002091
:100A0000000000000000000030FF0020290201006B
:100A100040000000FCF500203CFF0020000000002A
:100A2000B87A070838FF0020010101000400000027
:100A300078F6002080FF0020000000000000000089
:100A40007CFF0020000101000400000038F50020B8
:100A500088FF002000000000F87A070884FF0020CB
:100A6000020101000300000074F6002090FF002046
:100A70000000000039E402088CFF0020233201004E
:100A800014000000FC0B01208C1A01200000000063
:100A9000FC7A0708881A0120030001000100000009
:100AA000B8000120A41A012000000000000000008E
:100AB000A01A0120001201000A00000030280120C5
:100AC000B42D01200000000000000000B02D012026
:100AD0001002010001000000D8820120D482012010
:100AE00000000000107B0708D082012009020100ED
:100AF000010000004C820120E08201200000000083
:080B0000127B0708DC820120D2
:100B080001010000FFFFFFFFA4000000000000003B
:100B180000000000000004010000020001000002C3
:100B2800100000000700FF00006002401060024053
:100B3800000000000000000000000000000B0000A2
:100B480000000000000000000000000000600240FB
:100B580028600240010000000000000000000000C2
:100B6800060C00000000000000000000000000006B
:100B780000600240406002400200000000000000E7
:100B880000000000100D0000000000000000000040
:100B980000000000006002405860024003000000AE
:100BA8000000000000000000160E00000000000019
:100BB8000000000000000000006002407060024079
:100BC800040000000000000000000000200F0000EA
:100BD800000000000000000000000000006002406B
:100BE80088600240050000000000000000000000CE
:100BF80026100000000000000000000000000000B7
:100C080000600240A06002400600000000000000F2
:100C1800000000003011000000000000000000008B
:100C28000000000000600240B860024007000000B9
:100C38000000000000000000362F00000000000047
:100C48000000000000000000006402401064024040
:100C58000000000000000000000000000038000054
:100C680000000000000000000000000000640240D6
:100C7800286402400100000000000000000000009D
:100C8800063900000000000000000000000000001D
:100C980000640240406402400200000000000000BE
:100CA80000000000103A00000000000000000000F2
:100CB8000000000000640240586402400300000085
:100CC8000000000000000000163B000000000000CB
:100CD8000000000000000000006402407064024050
:100CE800040000000000000000000000203C00009C
:100CF8000000000000000000000000000064024046
:100D080088640240050000000000000000000000A8
:100D18002644000000000000000000000000000061
:100D280000640240A06402400600000000000000C9
:100D38000000000030450000000000000000000036
:100D48000000000000640240B86402400700000090
:100D5800000000000000000036460000000000000F
:100D68000000000000000000FF08E001F40100009E
:100D7800000000000000000000000000010000006A
:100D88005595000800000000000000000000000069
:100D98000100000000000000010B01011201000227
:100DA80000000040830420570002010203010000F4
:100DB800040309041A0300000000000000000000FA
:100DC800000000000000000000000000000001001A
:100DD80050C3000060FECD000101000000010000CA
:100DE800204E00000000000000000000010101008A
:100DF8000006906006000000881300000304080045
:100E0800010390700600000010270000030408008A
:100E18000202908006000000204E000005040A002F
:100E28000301909006000000409C000006020A00A2
:100E38000009185006000000D007000002040C004A
:100E48000107186007000000A00F000003040E004F
:100E580002051870070000000A1A000004040C00BC
:100E68000302188007000000204E000005020C0055
:100E7800000690FF1C11B80BC4095802881301031F
:100E88008BFF4222AC0DC40958028813020288FF66
:100E98008444A00FC40958028813030185FF8444C1
:100EA8007017A00F00008813000997FF8106C40976
:100EB800C40903008813010794FFE40CB80BC409A4
:100EC80006008813020590FFEF16AC0DC4090A004E
:100ED800881303028DFF2E2AA00FC409000088136F
:100EE8007EFF7EFFE2FFE2FF050000003C090020D4
:100EF8006068002004000000010000008150010823
:100F080000000000000000000000000000000000D9
:100F18000000000097000000AC0500200000000061
:100F28000300000001000000DD500108000000007F
:100F380000000000000000000000000000000000A9
:100F4800380900205C68002004000000010000004F
:100F5800ED50010800000000000000000000000043
:100F6800000000000000000034090020000000001C
:100F780004000000010000005951010800000000B1
:100F88000000000000000000000000000000000059
:100F98001B000000280600200000000003000000DD
:100FA8000000000000000000000000000000000039
:100FB80008000000010000001151010800000000B5
:100FC8000000000000000000000000000000000019
:100FD80030090020586800200400000001000000CB
:100FE8001D6801080000000000000000000000006B
:100FF80000000000000000008600000090060020AD
:101008000000000004000000010000002151010858
:1010180000000000000000000000000000000000C8
:10102800000000002C09002000000000040000005F
:1010380001000000595101080000000000000000F4
:101048000000000000000000000000002809002047
:101058000000000002000000000000000000000086
:10106800000000000000000008000000010000006F
:1010780049510108000000000000000000000000C5
:10108800000000000000000024090020000000000B
:101098000400000001000000595101080000000090
:1010A8000000000000000000000000000000000038
:1010B800D800000000000000050000000600000045
:1010C80002000000000000002009002054680020F1
:1010D8000200000001000000D50F01081C090020D3
:1010E800000000000100000001000000B50F010829
:1010F8005807002000000000000000000000000069
:1011080000000000000000000000000000000000D7
:1011180001000000000000000000000000000000C6
:1011280000000000010000000000000000000000B6
:1011380000000000000000000100000000000000A6
:10114800030000000000000005000000FFFFFFFF93
:101158002A010000BC78060825000000FFFFFFFFF9
:10116800F17301087D740108C1740108AD1201080A
:10117800017501084D750108B1120108F808002031
:10118800B973010895110108B9110108DD110108A9
:10119800E11101083D120108A9120108D408002034
:1011A8000513010831130108491301084D130108FB
:1011B800997501085113010855130108787B060831
:1011C8008DB305089188050815B2050800000000D0
:1011D800000000004DA605088DA6050800000000C7
:1011E8000000000000000000D1880508F110010887
:1011F800FD100108657301083D7301080911010814
:10120800817301089D7301081F0000001C00000085
:101218001F0000001E0000001F0000001E0000004C
:101228001F0000001F0000001E0000001F0000003B
:101238001E0000001F0000000068214C0080020210
:101248001F00000053544D202020202050726F644E
:10125800757420202020202020202020302E30319E
:10126800008002021F00000053544D20202020203F
:1012780050726F64757420202020202020202020A8
:10128800302E303106000000050000008300FFFF0B
:101298001A0000008200FFFF1D0000008200FFFF0F
:1012A8001700000015000000018B0508058B0508D4
:1012B800098B0508158B0508198B05080D8B050882
:1012C800118B0508FFFF0000FFFFFFFF0100000072
:1012D80045B60508BDB6050869BF0508CDC90508A6
:1012E80089BE0508FDB70508DD8805084589050894
:1012F800598905080101FF003C9306087093060808
:10130800A4930608FFFFFFFF4D4D020800010101ED
:1013180000000000FFFFFFFF28FB0608000008028E
:10132800050303000000000034FB06080100080262
:10133800050403000000000040FB06080000080246
:10134800050303000000000048FB0608010008022E
:101358000504030000000000E05F07080200FE012A
:101368000112030000000000F0F006080300140258
:10137800000300000000000050FB060804001F02E4
:10138800020008000000000058FB060805001F02C4
:1013980002010800000000007D00000001010200B9
:1013A800F0FB060854FF06080000000065E202088A
:1013B800A086010004000000F0FB0608045B070893
:1013C80000000000A5440208E80300000400000033
:1013D800B8F106080000000000000000B9AD0308DD
:1013E8007D000000FF000000B4F5060800000000C2
:1013F8000000000035AF03087D000000FF0000007A
:10140800F8650708000000000000000061DB030821
:101418007D000000FF000000E8FF06080000000053
:1014280000000000951C0208E8030000030000000B
:1014380098F7060800000000000000004554040862
:1014480010270000030000004CFB06080000000005
:1014580091150408519902085F7600000500000004
:10146800D40107080000000000000000D97302083A
:1014780010270000020000000C5B070800000000B5
:101488000000000071130208E803000005000000D6
:10149800185B07080000000000000000992B0308F3
:1014A800204E000003000000285B07080000000031
:1014B80000000000A52D0308204E000003000000D6
:1014C800385B07080000000000000000111902083E
:1014D800400D030003000000CCFC060800000000DB
:1014E80000000000D9960208102700000200000042
:1014F8007CFF06080000000000000000D5F1040889
:101508001027000003000000485B070800000000E7
:1015180000000000557702081027000003000000B3
:10152800545B0708000000000000000089820208E0
:10153800A0860100020000005CF60608000000001A
:1015480000000000D57F0208A8610000020000002A
:101558000CF40608000000000000000041740208B6
:101568001027000002000000DC010708000000004E
:1015780000000000FD840208A00F00000200000027
:10158800D4FC06080000000029C40408195C0508FA
:101598008545010002000000CCF3060800000000A9
:1015A80000000000E91E05081027000002000000E6
:1015B80068FF0608000000000000000031CE0408A3
:1015C80050C30000020000005C5B07080000000038
:1015D80000000000493E0508400D0300010000001E
:1015E800645B07080000000000000000A909050866
:1015F80050C3000003000000705B070800000000F3
:1016080000000000B547030840420F000100000039
:101618007C5B07080000000000000000DD8C020869
:1016280050C3000001000000885B070800000000AC
:1016380000000000B5470508102700000200000060
:10164800C9B105083D880508ADB0050800000000CF
:101658006D880508FDB105081D9F0508F99E050858
:10166800000000000000000061880508D18A050814
:10167800F58A050831C9050815C905084DC90508C1
:1016880069C9050885C905081DB10508198805082F
:101698009DAE050800000000E98705084D9D050876
:1016A800ED9D0508D59E050800000000000000001B
:1016B8000D8805080000803F0000000000000000C1
:1016C800000000000000803F000000000000000053
:1016D800000000000000803F000000000000000043
:1016E80000000000FFFFFFFF01000000FFFFFFFFF9
:1016F8005D8E0208000000000000000000000000ED
:10170800498E0208000000000000000000000000F0
:10171800010000000000000018FF00200800000081
:101728000000000008FF002008000000FFFFFFFF86
:10173800A59602080000000000000000000000005C
:101748000000FA430000FA430000803F581B0120C4
:10175800AC1B012001F11F3FB4230120C22301204B
:10176800D6010000FF1FFF1FFF0000000000803FA0
:101778000000000000000000000000000000000061
:101788000000000000000000000000000000000051
:101798000000000000FF0000000000000000000042
:1017A800B5BD0408000000000000000098D006083D
:1017B8000100000000000000000000000000000020
:1017C800B0D506080000000000000000000000007E
:1017D80068D60608000000000000000000000000B5
:1017E80014D60608D5DD040800000000000000003B
:1017F800C4E7060801000000FA000000010000002C
:1018080001000000000000000000000071D604087C
:10181800E4270120FF000000FD0205080000000089
:101828000000000014D50608959C0508000000007B
:101838000000000088D406082FFE040800000000FD
:101848000000000040D406082D202D2D202D2D2D20
:101858002D202D2D2D0000000000000000000000AC
:101868000000000000000001010000000000803FAF
:101878008A24012088136F17010000008C2401209E
:1018880088136F17000000008E24012088136F173B
:10189800010000009024012088136F170000000049
:1018A80065BD04080000000000000000A8D106087B
:1018B8002C28012001000000FCD1060893240120F7
:1018C8000100000008D206083825012002000000A7
:1018D80010D206088DBD04080000000000000000BA
:1018E8001CD20608000000000000000000000000F4
:1018F80070D2060800000000000000000000000090
:10190800E0D20608882401200200000028D3060837
:10191800602C0120E0150C1700000000C012000028
:10192800CA2D01200000000000000000C82D012081
:101938000000000000000000C62D0120000000008B
:1019480000000000C42D012000000000000000007D
:10195800C22D01200000000000000000C02D012061
:101968000000000000000000B40F0020000000008C
:1019780000000000922401200300000018D306088C
:1019880000000000000000000000000034D306083A
:10199800CE2D0120E0150C1700000000D02D0120ED
:1019A8000200000028D306082D202D2D202D2D2DD6
:1019B8002D202D2D2D2D000000000000000000001E
:1019C800000000000000000000000000000000000F
:1019D800000000006CD30608D22D01209CFF2C01CA
:1019E800000000003A2C0120E0150C170000000050
:1019F800A22B01200200000028D306082D202D2D3F
:101A0800202D2D2D2D202D2D2D2D00000000000026
:101A180000000000000000000000000000000000BE
:101A28000000000000000000A4D3060824240120C0
:101A380000C80100232401200050010022240120B5
:101A4800005A0100202401200200000064880608D2
:101A5800E0620708E86207082A2801200100C40993
:101A680000000000282801200100C409000000002F
:101A7800262801200100C4090000000024280120B4
:101A88000100C40900000000202801200100C40949
:101A980000000000222801200100C4090000000005
:101AA8001E2801200100C409000000001C28012094
:101AB8000100C409000000006924012000C80100D9
:101AC8006824012000C80100662401200000FFFFEF
:101AD8000A000000642401200100C8000100000081
:101AE8006224012032003075320000006024012099
:101AF800E2FF1400050000005E2401207EFF1400B0
:101B0800050000005C24012005002C0105000000F0
:101B18005A240120055A05006F24012000FF010006
:101B28006D24012002000000E81000206B24012031
:101B3800030000007CD106086E24012000FF01008C
:101B48006C24012002000000E81000206A24012013
:101B5800030000007CD1060848250120FF7F010012
:101B68004425012000000000FFFFFFFF01000000E6
:101B78004025012000000000FFFFFFFF01000000DA
:101B88003C25012000000000FFFFFFFF01000000CE
:101B9800EA230120EE02CA0801000000E92301201F
:101BA80000C8010064000000E823012002C8010009
:101BB80064000000E723012002000000A089060855
:101BC800862401200000803E0500000084240120B6
:101BD80080C1803E05000000822401200083007D32
:101BE800050000008024012080C1803E050000001F
:101BF8007E24012000FF01007C2401206400F40100
:101C0800010000007A2401206400F40101000000B2
:101C1800782401206400F4010100000076240120EA
:101C280004000000708C06087524012002000000E2
:101C3800648C06080000000000000000000000009E
:101C4800B0D60608E62301204F000000E489060804
:101C5800E423012003000000E8D60608E52301205C
:101C680004000000848C06085324012003000000AF
:101C7800F8D606085224012003000000F8D606080A
:101C880046240120000A0100442401200000E80342
:101C980001000000422401200000E80301000000C8
:101CA80040240120000A01003E2401200000E8032E
:101CB800010000003C2401200000E80301000000AE
:101CC80034240120C800E803010000003A24012060
:101CD8001400FA0001000000382401200100E80384
:101CE80001000000362401200005010032240120F3
:101CF8000200000020890608302401200000F401B9
:101D0800010000002E2401200000F4010100000061
:101D18002C2401200000F401010000002A240120E5
:101D28000000F40101000000282401200000E8035D
:101D380001000000262401200000E8030100000043
:101D48001F240120006401000A0000001E24012055
:101D5800006401000A0000000D240120196401003C
:101D68000C24012002000000148906080124012027
:101D780000640100002401200064010008240120FF
:101D8800006401000A00000007240120006401002B
:101D98000A00000006240120006401000A00000077
:101DA8000B24012000FF01000A0000000A24012082
:101DB80000FF01000A0000000924012000FF0100C3
:101DC8000A0000000524012001FF01000A000000AC
:101DD8000424012001FF01000A000000032401205F
:101DE80001FF01000A000000502401200000F40156
:101DF800010000004E2401200000E803010000005B
:101E08004C2401200000E803010000004A240120BE
:101E18000000E80301000000482401200000E80356
:101E28000100000048270120E803D0070A0000004D
:101E380047270120006401000A000000462701200E
:101E4800009601003D27012000C801003C27012021
:101E5800006401003B270120006401003A270120AB
:101E6800006401003927012000640100382701209F
:101E7800FF0801003727012001640100F9B70408B1
:101E880039B804080000000008D7060840270120D8
:101E9800013201003F27012001000000E888060800
:101EA8003E27012004000000F0880608362701209C
:101EB8000096010035270120006401003427012025
:101EC80000FA010064000000332701200A5A0100CB
:101ED8003227012000C801003127012000C8010075
:101EE8003027012000C801004327012000320100EB
:101EF800452701200014010044270120005F01004C
:101F080042270120040000002888060841270120F4
:101F1800006401000A000000FB2301200AC8050034
:101F28000A000000FA23012001000000308D060895
:101F3800FD2301200AC805000A000000FC23012037
:101F480001000000308D0608F223012000C80500BA
:101F58000A000000F923012000C805000A0000005B
:101F6800F323012000C805000A000000F423012023
:101F780000C805000A000000F723012000C805007A
:101F88000A000000F823012000C805000A0000002C
:101F9800F623012000C805000A000000F5230120EF
:101FA80000C805000A000000F1230120020000001B
:101FB800F88706082E2701200000D007010000003E
:101FC8002927012000C801002827012000C8010096
:101FD8002727012000C801002C2701200000D00776
:101FE800010000002627012000C801002527012044
:101FF80000C801002427012000C801002A27012069
:102008000000D007010000002327012000C80100BC
:102018002227012000C801002127012000C8010053
:10202800406D0708000000000000942D01204C6D51
:102038000708070800000000B0160020546D0708C4
:10204800070800000000A81600205C6D07080708B4
:1020580000000000A0160020646D070808080000B2
:102068000000941600206C6D0708070800000000A7
:102078008C160020746D07080708000000008416FD
:1020880000207C6D07080708000000007C1600206F
:10209800846D0708080800000000701600208C6D89
:1020A800070807100000000068160020946D070854
:1020B800071000000000601600209C6D070807103C
:1020C8000000000058160020A46D07080810000042
:1020D80000004C16002008610708010000000000FD
:1020E80000000000000000001000000000000000D8
:1020F8000000000041BA040851BA040825DF0408AA
:1021080078D7060859240120005A010058240120D4
:1021180000C8010056240120E803D0070100000090
:102128000000000000000000CDD9040814D80608FB
:102138007424012003000000E887060873240120A6
:10214800000301007224012000030100CDBA040835
:1021580021BB04080000000068D8060875BB040805
:10216800B5BB04080000000010D9060889DD040882
:10217800011305080000000090D90608702401200A
:102188000103010069BE040891BE040800000000B4
:1021980010DD06087DB604089DB60408000000009E
:1021A80090DD060835BC040895BC04080000000052
:1021B800F4DD060811D8040845B60408000000003C
:1021C800ACDE06082DBA040800000000000000007C
:1021D80048DF0608F1B8040859B9040800000000EF
:1021E800ACDF060879B80408B5B804080000000098
:1021F80064E00608F11A0508C9B7040800000000E1
:10220800F0E006081F27012003000000842D0120AC
:10221800BDB90408F9B9040800000000ECE106089B
:10222800351B050819DC0408000000005CE20608FC
:1022380049B70408F5DA040800000000F4E30608CA
:10224800991A0508B5DA040800000000B81600203D
:102258002027012003000000402D01206DBA04084A
:102268009DBA04080000000000E5060805CE040831
:10227800000000000000000064E50608FDBB04083B
:102288001D1305080000000000E606080000000015
:1022980000000000000000009CE60608111A05086E
:1022A80081DA0408000000000CE7060801010A00B2
:1022B8000100000014350120000000000C35012049
:1022C800000000000101AA550902000000AA5503F8
:1022D800009FAA550B01000014010000FF00000038
:1022E80009024300020100C0320904000001020291
:1022F8000100052400100105240100010424020244
:102308000524060001070582030800FF09040100EF
:10231800020A0000000705010240000007058102CB
:102328004000000009026400030100C032090400F3
:1023380000010300000009211101000122360007F5
:1023480005830309000A080B0102020201000904BF
:10235800010001020201000524001001052401000A
:10236800020424020205240601020705820308006C
:10237800FF09040200020A000000070501024000EC
:10238800000705810240000009022000010104C085
:1023980032090400000208065005070581024000C2
:1023A800000705010240000012010002EF0201408F
:1023B80083045632000201020301000012010002E8
:1023C800020200408304405700020102030100009A
:1023D80004030904AA5507010000080001000000D1
:1023E800AA5505010000AA550501000001010000D9
:1023F80005010905A101A1000501093009310932CA
:10240800093309350934093609371581257F7508D7
:102418009508810205091901290815002501950863
:1024280075018102C0C0000009022200010100E01C
:102438003209040000010301020009211101000111
:102448002236000705830309000A00000000000087
:102458000000000001000000000000000000000073
:10246800F24601200000000001000000000000000A
:102478000000000000000000000000000000000054
:102488000000000000000000000000000000000044
:10249800000000000100000000000000FF00000034
:1024A80000000000010203040102030406070809F2
:1024B800B1AC050851AD05088DA70508B987050811
:1024C800CDB005089D87050885870508C9870508D3
:1024D800D987050800000000000000000000000087
:1024E80039CE0508C9CD050835C00508D5CC05087D
:1024F800C1CA0508A18A0508B58A0508C98A050858
:10250800000000000000000001020304060708099B
:10251800C70000000500000006000000B81B0020EE
:1025280000000000000000000000000000000000A3
:102538000000000000000000000000000000000093
:102548000000000000000000000000000000000083
:102558000000000000000000000000000000000073
:102568000000000000000000000000000000000063
:102578000000000000000000000000000000000053
:08280000082800080040000850
:1080000082B01E4B002201920193019B1C4A043353
:108010000193019B1968936803F00C03042B06D0AD
:10802000082B08D0174B184A1A6002B07047154B3E
:10803000196002B070475368506813F4800F00F065
:108040003F00536812D1C3F388130F49B1FBF0F11D
:1080500001FB03F30A4A0B495268C2F301420132A1
:108060005200B3FBF2F30B6002B07047C3F3881306
:10807000B1FBF0F101FB03F3ECE700BF5028004037
:1080800000380240181C00200024F400074BD0F8F0
:10809000E4105B68D0F8F0205B1A9A42B8BFC0F8D1
:1080A000F030012380F81C3100207047001000E000
:1080B00090F8DB30052B03D890F81E31032B01D04C
:1080C0000020704790F8233103F0FB03022B0CBF14
:1080D00000200720704700BFB84B00EB800103EB86
:1080E000C10170B54A685268B2F814E01EF0010F81
:1080F0004FEA800C6ED15FFA8EF4A60742D5BFF32B
:108100005F8F91F82040012CE5B200F0D180118BF7
:10811000BFF35F8F0CEB000103EBC10191F820402E
:10812000022C00F0E7800CEB000103EBC10191F899
:108130002040032C07D191F8221021B193F87D1033
:10814000002940F0E780918889B241F480619180F4
:1081500093F97C100CEB000E03EBCE0E9EF820E0A2
:108160000EF1010E8E450CD1002183F87D1093F89D
:108170007E10002940F0B780604403EBC00300226A
:108180005A7770BD65075DD414F0400400F0CB80D1
:10819000148A93F97C508E6AE4B274555FFA85FEB6
:1081A0000EF1010464B291F8206083F87C40E51C74
:1081B000AE42214600F025810CEB000503EBC5051E
:1081C00095F82050AC42C5D10EF1020149B283F8B6
:1081D0007C10BFE7B2F800E02EF4006E4FEA0E4EBE
:1081E0004FEA1E4EA2F800E01488A4B244F4806462
:1081F000148091F82240002583F87C50002C48D050
:1082000093F87D40002C41D0012183F87D100CEBC8
:10821000000103EBC10191F82010022904D111885B
:1082200089B241F4006111800CEB000103EBC10144
:10823000897F41F001011182604403EBC00393F890
:10824000203070BD91F82240012583F87E50002C2B
:1082500070D093F87D40002C71D10CEB000103EB42
:10826000C10191F82110002900F0AA80118889B27B
:1082700041F40071118093F87C1001314CB283F805
:108280007C401188CE05FCD4214663E7C97FFF29D5
:10829000BAD00CEB000103EBC1018C7F04F0FE04AB
:1082A0001482CA7FFF2AC7D0FF2283F87C20C3E74D
:1082B00091F8221000293FF42AAF93F87D1000298D
:1082C0003FF425AF118821F480610904090C118065
:1082D000BFF35F8F118B118883F87E5089B241F410
:1082E000007111802FE7918821F440710904090C75
:1082F000918041E791F8221000293FF414AF93F8E0
:108300007D1000293FF40FAF118821F4806109042A
:10831000090C1180918821F480610904090C918075
:1083200093F97C1016E71FFA8EF52D062DD493F9DC
:108330007C100FE793F87D1000298ED096E791F816
:108340002040022C148846D924F480642404240C90
:108350001480158A8E6A93F97C40EDB235558E6A89
:10836000118889B241F400711180E4B2158A611C50
:1083700049B2EDB275549188023489B264B241F4C5
:10838000806183F87C4091807BE793F97C506E1C80
:108390003ED04C6A665D16826C1C91F8205064B227
:1083A000A54283F87C4021467FF4D4AE948824F41F
:1083B00080642404240C9480CCE600BF181C0020A8
:1083C000118893F97C4089B241F4807111800121B8
:1083D00083F87D1055E7A4B244F400741480158A24
:1083E0008E6A93F97C40EDB23555E4B28E6A158AF7
:1083F000611C49B20334EDB264B2755483F87C4019
:108400003FE7958825F480652D042D0C9580D3E6F3
:1084100083F87C40CC7F148291F8224024B991F8F3
:10842000201000297FF408AF918821F480610904AD
:10843000090C918000E700BF30B5EAB18E464FEAE3
:10844000014C034600F1C005002419689A6841EA0E
:108450000C0142EA0E029A60C3E900140C33AB42ED
:10846000F3D1D0F8C030C0F8C44043EA0E03C0F8DE
:10847000C030C0F8C84030BD4FEA014E8C46E0E73E
:1084800083691969B3F80CC00A6830B49C6822F09B
:10849000010224680A60A28992B222EA0C02A28137
:1084A000027D04681F2A06D96568203A082090409A
:1084B000284246D0FEE72568082090402842F9D19E
:1084C000202000FA02F2A260274A92F87F20002AB8
:1084D00035D01A7E012A39D0D3F8F4200132C3F8FE
:1084E000F420EFF31181502282F3128858685C6CFB
:1084F000026822EA04029C6C2243C9B2026081F342
:108500001188D3E90C401A6999681D6C09681460D8
:108510005061D3E90E40546090600024B3F8A80085
:10852000D5604C62C86210680124204310601C763C
:1085300083F8F1408A899B8913439BB28B8130BCBD
:108540007047202000FA02F2E260BDE7002283F8C3
:10855000F120D3F8F8000A68013022F00102C3F8D4
:10856000F8000A60EBE700BF181C002010B40D4CA7
:10857000D4F88030002B12DD002004F1840C014679
:10858000DCF8A03003F1C00259600C339342FBD1F8
:10859000D4F88030013083420CF5807CF0DC5DF84B
:1085A000044B7047181C0020704700BF024B03EBC0
:1085B000401090F8A1047047181C00204368B0F8E0
:1085C000502010B41A83EFF31182502383F31288E2
:1085D0004168446C0B6823EA0403C46C2343D2B2A1
:1085E0000B6082F31188D0E9074182680369126841
:1085F0001C605961D0E909415C60C46A9960B0F8B7
:108600006010DC600023D1625DF8044B0376704794
:10861000084B10B5D3F8843518440C46007E1BF087
:1086200091FE18B1036882880CB11A8310BD5A8379
:10863000FCE700BF181C00204FF4006383817047E3
:10864000074BD0F8E4105B68D0F8F0205B1A934237
:10865000C8BFC0F8F030012380F81C3100207047FB
:10866000001000E04FF40063838170474FF4006313
:10867000838170474FF4006383817047012380F842
:108680001031704707B500238DF807300DF1070250
:1086900001230F211AF01EFB28B19DF807306C2B27
:1086A00014BF0020102003B05DF804FB4FF40063FA
:1086B000838170474FF40063838170474FF40063F8
:1086C000838170477047012070470120704730B1A7
:1086D000094BD3ED097AFDEEE77AC0ED007A51B18E
:1086E000054B9FED067AD3ED0A7A67EE877AFDEEA9
:1086F000E77AC1ED007A7047A02100200000C8424F
:10870000024B012283F8B425704700BF181C0020DB
:10871000344AF0B5B2F8C235B2F8B655B2F9CC4524
:10872000B2F9BA65B2F9C6C5B2F9D875ED1AB2F8A0
:10873000C0356B43B2F9CA5504EBE334ED0295FB47
:10874000F4F505EBE335A5F57A6E0EFB0EF4231375
:10875000B2F9BC45C2F8D4550EFB06F60EFB04FE7A
:10876000B2F9C4455C4303FB0CFCF612241406EB7F
:10877000EC2C04EB6E34B2F9B865B2F8BE350234B5
:108780000CEB860CA410D2F8DC6504F500440CFA5E
:1087900007FC63430CF1020C4CF25032DC0BA6EBED
:1087A000AC0642FA07F3734355BF5B00B3FBF4F327
:1087B000B3FBF4F35B0070B11A1240F6DE3452439F
:1087C0006243094C12145C4302EB244202F6CF626E
:1087D00003EB2213036021B10A235D4308352D11F9
:1087E0000D60F0BD181C002043E3FFFF704701201F
:1087F0007047012070472DE9F047DFF88081D8F8F5
:10880000E055B8F8E425B8F8EA95C2EB2513520014
:10881000C2EBE502B8F9E6556A4303FB03F5B8F984
:10882000E8352D135D43AD1305EBE225B8F9EE35C0
:10883000C8F8FC550E46A5F5FA31074681FB010C38
:108840004FEAE37E03FB0CF200FB0E22A3FB003E8B
:108850009644B8F9EC2582FB01421B0A120343EA55
:108860000E6342EA145224031B1942EB2E2202F536
:108870000042A3FB093E09FB02EE4FEAEE734FEA0A
:108880006E0253EA6E0E4FF000046BD0B8F9F49507
:108890004FEAE97E09FB0CFC00FB0ECCA9FB009023
:1088A0008444B8F9F20580FB01E148044FEA4E41E7
:1088B00011EB0909D8F8001640EADE304CEB000055
:1088C000C1F5801C0CF0004AB8F9F01514EB09044E
:1088D0004AEA5C0A4FEACC7C00EBC10140F635491C
:1088E000BCEB04006AEB010AA0FB090109FB0A11B9
:1088F0005CF02CFEB8F9FA454FEA613E430B43EABF
:10890000C14304FB0EF24FEAE47C03FB0C2CA4FBF6
:108910000342624404FB0EFE03FB02EEA4FB03438E
:10892000B8F9F8259E44640E44EACE1414EB000C0A
:1089300002FB01F34FEAE274814641EB6E6EA2FB4B
:10894000092904FB00314944D40C44EA41341CEBAE
:108950000404B8F9F6354EEBE141240A44EA016417
:1089600004EB03140FB1240A3C6026B105EB850526
:1089700080352D123560BDE8F08700BF181C00203F
:1089800000B583B04FF0000C01230DF10702112157
:1089900098388DF807C01AF09DF903B05DF804FB14
:1089A000704700BF012070470120704708B500687C
:1089B00059F03CFD38B9054AB2F804365BBAA2F862
:1089C000B635012008BD0020FCE700BF181C0020C0
:1089D00008B5006859F02AFD98B90B4A92F8053697
:1089E00092F804161B0243EA014392F806160B4361
:1089F000B2F9D815C1F10801CB40C2F8DC3501202D
:108A000008BD0020FCE700BF181C002008B5006866
:108A100059F00CFDE0B90F4B93F8082693F80716B0
:108A2000120142EA013293F8091642EA1112C3F820
:108A3000002693F80B2693F80A16120142EA013237
:108A400093F80C1642EA1112C3F8E025012008BD84
:108A50000020FCE7181C002003681A78012A1CD0AB
:108A6000144B00B593F8161693F815C693F8140630
:108A700093F8192693F818E6090441EA0C210143FA
:108A8000120493F81706C3F8101642EA0E220243A6
:108A9000C3F81C2601205DF804FB93F90420054B64
:108AA00002EB820203EBC202527F002AD9D00020DF
:108AB000704700BF181C00202DE9F04FC94C83B04F
:108AC000B4F82036D4F81C2694F92456CDE90001D8
:108AD000B4F82216A2EB0322A1FB02139E04A2FB10
:108AE0000223EF1705FB03F302FB073346EA913637
:108AF000A5FB025289046D181A4442EB0603002BB1
:108B000002DA013D43F10003B74ADF1742E90237B9
:108B1000009A002A00F0148103FB07F1A3FB032E47
:108B20000EEB410E4FEA921C4CEA8E6C0CFB07FBDD
:108B30004FEAAE1103FB01BBACFB03C81BEB080BF8
:108B4000D4F8105600F1488194F92A164FEA1C2CEB
:108B50004CEA0B6C4FEA2B2B4FEAE17801FB0BFA46
:108B60000CFB08AAA1FB0C181AEB080800F13081D5
:108B7000B4F92566B4F92796490941EAC86108465F
:108B8000A6F5804694F92916B60306EB681ACE17A7
:108B900001FB0EF802FB0688A1FB02164644B60054
:108BA00046EA91768900A9F5804941184AEB060604
:108BB00009FB07F84FEAE97A03FB0A88A9FB039A45
:108BC000D0444FEA485848EAD9284FEA495911EBAE
:108BD000090146EB0806002EC0F2F38094F93096A6
:108BE00009FB0BFB4FEAE9780CFB08BBA9FB0C98CF
:108BF000090E1BEB080841EA06214FEA266600F140
:108C0000DB804FEA591C94F92F96B4F82DA609FB86
:108C10000EFE4FEAE97B02FB0BEEA9FB0229CE44D4
:108C20004FEA0E1E4CEAC86C4EEA127E12011CEB93
:108C3000020CB4F82B264FEAC23202EB6818AAFBEA
:108C400003920AFB072A4FEA8A5A4AEA992A4FEA0C
:108C5000895948EB0E081CEB090948EB0A08B8F1E2
:108C6000000FC0F2A48094F933E6B4F931B64FEAAC
:108C70009909A1FB051249EA887919EB010905FB5D
:108C800006264FEAEE710EFB07F24FEA0B4C03FB90
:108C90000122AEFB03E146EBA8060A441EEB0C0ED4
:108CA00042EBEB7BAEFB05CE05FB0BEEBEF1000FFE
:108CB00076DB4FEA5C3C4CEACE4CACFB05C14FEA9C
:108CC0006E3E05FB0E1EBEF1000F62DB4FEA5C2C10
:108CD00094F934264CEACE5C19EB0C0146EB6E2677
:108CE0004FEAE27CA5FB054E04FB0CFC02FB0ECC1C
:108CF000A4FB02421CEB020C45D4220C42EA0C42BB
:108D0000A2FB05244FEA2C4C05FB0C4CBCF1000FD8
:108D100035DBD20942EA4C62521846EBEC16941845
:108D200046EB060CA41846EB0C0C4FEACC0C4CEAB4
:108D3000547CE400A41846EB0C06009A360C16602E
:108D4000019A9AB1DA1847EB0701D21847EB0101F3
:108D5000C90041EA5271D200D31847EB0107002F36
:108D600007DB019A9B0B43EA8743136003B0BDE81E
:108D7000F08F43F6FF729B1847F10007F1E77F324F
:108D80004CF1000CC5E74FF6FF72A4184CF1000C33
:108D9000B3E740F2FF111CEB010C4EF1000E95E71A
:108DA00041F6FF721CEB020C4EF1000E81E719F147
:108DB000030948F1000856E719F11F0948F10008B6
:108DC0001FE76FF07F4911EB090146F1000605E747
:108DD0001F3148F10008CBE61CF1FF0C4BF1000BF2
:108DE000B2E600BF181C0020582200203D4B9FED2A
:108DF0003E4A93F8411693F8400693F8422693F8BA
:108E000043C6090201EB00410A44090248BF02F1CE
:108E10007F4207EE902AB3F95C2693F8440693F854
:108E2000451606EE102AB3F95826F8EEE77A06EE54
:108E3000902A67EE847AB3F95A26B8EEC66AF8EE3D
:108E4000E66A0002E7EE866A00EB0C40014406EE9B
:108E5000102AB3F9562605EE102AD3F85026000240
:108E600007EE102AB3F9542648BF01F17F41F8EE0E
:108E7000C75A04EE902A07EE101AD3F84C26B8EE23
:108E8000C66AB8EEC55AE6EEA75A012006EE902A49
:108E9000B8EEC77AA7EE865AB3F94A26B3F9483630
:108EA00027EE047AF8EEE44AB8EEE66A06EE902A77
:108EB000A7EE246AE5EE075AF8EEE66A05EE103AE8
:108EC00026EE877AB8EEC55AF6EE004AF0EE466A0C
:108ED000E7EEA56A054BA5EE247AC3ED066A83ED9D
:108EE000077A7047181C0020082184366022002071
:108EF00030B10A4BD3ED067AFDEEE77AC0ED007A89
:108F000051B1064B9FED067AD3ED077A67EE877A6B
:108F1000FDEEE77AC1ED007A704700BF60220020C5
:108F20000000C842704700BF012070470120704711
:108F3000704770470120704730B585B000238DF829
:108F400007300DF107020123E721054619F02CFF38
:108F50009DF80730134C13F0030320D0052302AA19
:108F6000E821284619F020FF9DF80A209DF80910F5
:108F7000130443EA01239DF8081012F0800F43EA1E
:108F8000010314BF4FF07F4200221343C4F8683638
:108F9000BDF80B30A4F86C36012005B030BDC4F824
:108FA0006836F7E7181C00200B4A10B5D2F868465F
:108FB0006423634348BF03F6FF731B130360B2F8D7
:108FC0006C360A2253433022B3FBF2F303F5845389
:108FD0001A330B6010BD00BF181C002008B50068D4
:108FE00059F024FA70B9084A92F8753692F8741656
:108FF0001B0243EA014392F876160B43C2F870361F
:10900000012008BD0020FCE7181C002010B5044614
:10901000006859F00BFA38B92046044A0623F721B4
:109020005BF05CFC012010BD0020FCE78F220020DB
:1090300010B50446006859F0F9F970B9084B93F877
:109040007D2612B193F8B40530B12046054A0223BB
:10905000F6215BF043FC012010BD0020FCE700BFBF
:10906000181C00201C22002010B50446006859F08E
:10907000DDF970B9084B93F87D2612B193F8B40569
:1090800030B12046054A0323F6215BF027FC01207E
:1090900010BD0020FCE700BF181C00201C2200208F
:1090A00010B50446006859F0C1F938B92046044AA1
:1090B0000623F7215BF012FC012010BD0020FCE725
:1090C0001F22002008B503681A78012A06D0094A31
:1090D000062304215BF002FC012008BD93F9043053
:1090E000054A03EB830302EBC3035B7F002BEED047
:1090F000002008BD2C220020181C002008B50368A1
:109100001A78012A06D0094A062300215BF0E6FB03
:10911000012008BD93F90430054A03EB830302EBF9
:10912000C3035B7F002BEED0002008BD5822002037
:10913000181C002008B5006859F078F970B9084A81
:1091400092F8753692F874161B0243EA014392F8BE
:1091500076160B43C2F88036012008BD0020FCE7DC
:10916000181C00202DE9F74F564AB2F88E36B2F897
:109170008A66B2F89076CDE90001D2F870161B022B
:10918000C91AB2F88C366EEB0E0EA3FB010403FB7A
:109190000E44B2F88836C00940EA44601B04C01887
:1091A000A6FB013506FB0E55B2F886664FEA13237F
:1091B00043EA05634FEAC6364FEAE41444F100047B
:1091C0009B19A7FB012607FB0E664FEAD25242EA23
:1091D00046224FEA252545F10005F61512F5FA6CF1
:1091E00046F1000BBCF5FA6F7BF100074CDAA2FBED
:1091F00002784FF0050A02FB06F908EB4909A7FBC4
:109200000A780AFB09884FEA570949EAC879BF0872
:10921000B0EB090047EA887764EB6804DB1B2A4F50
:1092200065EBA805BC454FF0FF377BEB070720DA5D
:1092300040F6AC57D21946F100065643A2FB027223
:1092400002EB46064FEAC608FA00BA1A48EA57780F
:1092500066EB0808101844EB08044FF00B08A7FB56
:10926000087208FB06267F0847EAC677DB1B65EB1A
:10927000660501FB0EFEA1FB011202EB4E0EC90FAB
:1092800041EA4E01BCEB010C009A9AB10D4AD2F8AA
:109290008016A1FB032301FB0535520D42EAC522CE
:1092A000121A4FEA6555009B65EB0404D20B42EAA3
:1092B00044421A60019B0BB1C3F800C003B0BDE883
:1092C000F08F00BF181C002024FAFFFF7047012018
:1092D00070470120704710B50446006859F0A6F8A1
:1092E00038B92046044A0623F7215BF0F7FA01203B
:1092F00010BD0020FCE700BFAC22002008B50068CC
:1093000059F094F8D0B90E4B93F8952693F894162B
:10931000120242EA014293F896160A43C3F89C26C9
:1093200093F8982693F89716120242EA014293F8AE
:1093300099160A43C3F8A026012008BD0020FCE7C7
:10934000181C002010B52C4CD4F8A026A2F5000261
:1093500007EE102A04F2A463B8EEC77A93ED026A0E
:10936000D3ED016AD3ED007AD3ED055AD3ED044A6B
:10937000D4F89C2693ED094A93ED075AE7EE066A66
:10938000A2F5000293ED066AE7EE267A93ED037AE2
:10939000E5EEA74A06EE902AA7EEA47AF8EEE66A72
:1093A000D3ED085AD3ED0B4AA4EE275AE6EEA45AA1
:1093B00093ED0A4AA5EE276AE4EE275AA5EEA66ABF
:1093C000A6EE867AB5EE407AF1EE10FA18BFBDEE41
:1093D000C77AF5EE407A18BF80ED007AF1EE10FA08
:1093E00008D0FDEEE77A17EE903A002BB8BFFF33B6
:1093F0001B120B6010BD00BF181C002010B5074CDD
:1094000094F8D4360BB9002010BD1BF0F9FDD4F848
:10941000D836C01AD0F5FA50F6D5F4E7181C00205B
:10942000B0F90000084B4143994208DBB1F5000F49
:1094300007DA0029B8BFFF31081200B270470348AD
:10944000FBE747F6FF70F8E701FF7FFF0080FFFFB3
:10945000704710B50D4C237843B10C300C4A0623ED
:1094600003215BF03BFA0020207010BD094BB3F8DC
:10947000DC2652BA0A80B3F8DE2652BA8A80B3F8E4
:10948000E0365BBA4B800120EEE700BF9801002078
:10949000F4220020181C002010B5124C637843B150
:1094A0000C30114A062328215BF018FA0020607066
:1094B00010BD0E4AB2F9E236002BB8BF03339B1041
:1094C0000B80B2F9E436002BB8BF03339B104B80FE
:1094D000B2F9E636002BB8BF03339B108B80012016
:1094E000E5E700BF98010020FA220020181C0020A8
:1094F00010B5174C94F8E836012B00F10C000CD095
:10950000022B17D0012304F2E96206215BF0E6F991
:10951000012384F8E836002010BD94F8E93613F0F2
:109520000403F6D0062304F2EA6200215BF0D6F9C8
:109530000223EEE7B4F8EA360B80B4F8EC364B8041
:10954000B4F8EE368B80002384F8E8360120E3E798
:10955000181C0020024B002083F8F006704700BF63
:10956000181C0020164BD0F8E0105A6810B50446BD
:10957000D0F8D80071B1131A99420BDC94F8D030AE
:10958000C4F8D820012B10D0D4F8D4300133C4F85B
:10959000D43010BDD4F8E430C4F8D8200344C4F863
:1095A000DC3094F8D030012BEED104F1E801201D1D
:1095B00019F060FAD4F8D4300133C4F8D43010BDB7
:1095C000001000E010B504460E49D0F8D83094F8E9
:1095D000D020D0F8E40049680344012AC4E93613D6
:1095E00005D0D4F8D4300133C4F8D43010BD04F120
:1095F000E801201D19F03EFAD4F8D4300133C4F844
:10960000D43010BD001000E070B5866996F8DC30EB
:10961000012B8AB0054629D0023B012B31D8D6F860
:109620009C301D4C8C221A700FCCEC46ACE80F001D
:10963000D6F89C300093D6F8A03001930FCCACE85C
:109640000F0094E80300AB698CE8030003F11000FD
:10965000694619F00FFAAA691369596A103299B16B
:109660008A4200D0FEE71A6A002AFCD1D6F8A03060
:10967000B3F90220EA81B3F904202A82B3F9063053
:109680006B8201200AB070BD1A6A002AEED01A6AF5
:10969000002AF9D1EAE700BF3070060838B5044661
:1096A0000D46FFF7ABFE23685C6808B11BF0E0FCD9
:1096B00022680A4B516A002083F8D40609B18C4213
:1096C00009D1126A42B9204693F8D5362A46C921F3
:1096D00019F0CEFA012038BD0020FCE7181C00204C
:1096E000F0B5836993F8DC20012A8BB005462ED0B3
:1096F000023A012A36D893F84C21D3F89C101E4C1C
:1097000062F07F030B708669D6F8A0305F1C0FCC27
:10971000EC46ACE80F00D6F89C30CDE900370FCC12
:10972000ACE80F0094E803008CE80300694606F1FA
:10973000100019F09FF9AB691A69516A03F1100022
:1097400099B1884200D0FEE7116A0029FCD1D3F814
:10975000A0305A8852BAEA819A8852BA2A82DB88A3
:109760005BBA6B8201200BB0F0BD116A0029EED00C
:10977000116A0029F9D1EAE7587006082DE9F0418D
:1097800090F8DC30D0F8A060012B8AB0044653D0AA
:1097900016D8D0F89C304FF0FF321A605A609A60A9
:1097A000DA60D0F8E0300522B3F57A7FC0F8F02017
:1097B00064D8032380F8DC3001200AB0BDE8F081D2
:1097C000023B012BF8D890F84D31D0F89C20424D47
:1097D00063F07F031370D0F8A03000F110085F1C15
:1097E0000FCDEC46ACE80F00D4F89C30CDE9003743
:1097F0000FCDACE80F0095E803008CE80300694644
:10980000404619F037F923695A6A12B190452ED0B3
:10981000FEE71A6A002AFCD173885BBAA4F8D0303C
:10982000B3885BBAA4F8D230F38801205BBAA4F8FD
:10983000D4300AB0BDE8F08190F84C2190F84D3159
:109840009B1A5B100133DBB206EB430236F8133090
:109850005BBAA0F8D03053885BBAA0F8D2309388B6
:109860005BBAA0F8D43001200AB0BDE8F0811A6AD2
:10987000002AD1D01A6A002AF9D1CDE703691A7BF0
:109880002AB35B691BB390F8983003B390F84C315E
:10989000D0F89C20C4F8A40063F07F03137090F804
:1098A0004C1190F84D31D0F8A0200C48C4F80401B8
:1098B0005B1A07330121C4F8FC30D4F89C3084F8DB
:1098C00000110A44C4E93D3284F8DC1074E7022335
:1098D00084F8DC3070E700BF587006088D800008FF
:1098E0002DE9F047044690F8210144F23B3382B061
:1098F000A4F84C3110B902B0BDE8F0870509013D6C
:10990000042D00F00F0071D83A4F07EB4503B3F870
:10991000503043FA00F2D20768D5012606FA00F06B
:10992000013818403D445BF061FEDFF8D89095F8AF
:109930005C80314B804409F2F46A0AEBC8052722A7
:10994000EA80E360AB88B3FA83F3202BC3F11F02F4
:10995000D1D0174409EB82020C34C2F8744928466E
:1099600097F8644019F086FE0021284619F0BAFEE7
:109970005AF83800A98800F13F40B1FA81F100F5AA
:109980007E00C1F11F01C0F38720C9B252F08EFDE5
:10999000AA888DF80660B2FA82F24FF00043A14423
:1099A000D34068464FF400620093ADF8042058F0AD
:1099B0003BFB99F8B439F02B0ED8AB884FF000423E
:1099C000B3FA83F332FA03F395D00C490A681343D0
:1099D0000B6002B0BDE8F087094AF023105D89F8FA
:1099E000B4390022032158F09DFCE6E7024BE36006
:1099F00081E700BF3070060865950008003C014013
:109A0000ACED0608181C0020274B5B68C3F3080365
:109A10002DE9F041002B3BD1EFF31183C3BB1BF0C9
:109A2000CBFA0546214F204E4FF00008D7F8804072
:109A3000002C29DD00231A4607EB0321013391F89E
:109A400075119C4242EA0102F6D142EA0804E4B2EE
:109A500090467368C3F308039BB9EFF3118383B98E
:109A60001BF0AAFA431BB3F5FA6F02DCB8F1000F42
:109A7000DCD11CB197F8BB394F2B0DD02046BDE887
:109A8000F0811BF037F9EDE744464FF00008E0E7BE
:109A90001BF030F90546C5E7B7F8C0390133A7F820
:109AA000C0392046BDE8F08100ED00E0181C002020
:109AB0002DE9F047836882B0824613B11A689B880B
:109AC00053835E4B5B68C3F30803002B40F0B28006
:109AD000EFF31183002B40F0AD801BF06DFA0646CA
:109AE000DFF85881564D102405E01BF065FA831B02
:109AF000B3F57A7F2DD2D8F80430C3F308031BB92D
:109B0000EFF31183002BF0D0EFF3118284F312886E
:109B10004FF0E02101208F690B69DB0302D5C5F806
:109B2000C8098F69D5F8C4E9D5F8C809D2B282F35B
:109B30001188D5F8CC194FF47A7202FB01F3704406
:109B4000DB1BB3FBF1F302FB0030831BB3F57A7F21
:109B5000D1D3DAF8083013B11A689B881383374CD5
:109B6000DFF8DC800A266368C3F30803002B5DD1AD
:109B7000EFF31183002B59D11BF01EFA81461025FB
:109B800006E01BF019FAA0EB0903B3F57A7F2DD29A
:109B90006368C3F308031BB9EFF31183002BF0D004
:109BA000EFF3118285F312884FF0E02101208F69D5
:109BB0000B69DB0344BFC8F8C8098F69D8F8C4E94A
:109BC000D8F8C809D2B282F31188D8F8CC194FF46A
:109BD0007A7202FB01F37044DB1BB3FBF1F302FB6F
:109BE0000030A0EB0903B3F57A7FD1D3013EBAD19F
:109BF000DAF80020ADF80460536A2BB19A4503D01F
:109C0000002002B0BDE8F087136A002BF8D150465F
:109C1000022301AA802119F02BF89DF80530242B8E
:109C200014BF00200F2002B0BDE8F0871BF062F8DF
:109C30008146A4E71BF05EF8064651E700ED00E020
:109C4000181C00202DE9F04F2DED028BC04F83B082
:109C500097F87F3001932BB9012003B0BDEC028B44
:109C6000BDE8F08FD7F8C43908EE103A07F2844AFD
:109C700007F51D694FF0000BD7F8243E5B4540F314
:109C8000E280DAF81830DAF80450D3E93A641BF0CD
:109C9000B7F94FEA850E97F8BB590EF1085E80467A
:109CA00004F1806197F8D80A0EEB461E39394F2D22
:109CB0000EEB81110EEB801301D1A7F8C209994276
:109CC00040F226811A68002A00F01A811A6C002AD4
:109CD00000F02A81D3F88020002A00F02781D3F8F1
:109CE000C02003F58073002AE9D1A3EB0E0E994240
:109CF0004FEAAE1E40F20C81A4EB0E0145294FF055
:109D0000000428BF452103EB81119C4620462646CE
:109D10000DE01A6C002A40F09F80D3F88020002AC2
:109D200040F0C580D3F8C02003F580732AB999426A
:109D300006D91A68002AECD04033994200F290808C
:109D4000112E344640F2E880D6F1150200F1E4808D
:109D500080494B689E45D7F8DC3A38BFC1F804E02B
:109D6000A8EB0301002916DB03F5F42303F5907338
:109D7000984588BF08F10503C7F8DC3A754B75496B
:109D80005B68052B86BF053BDBB2002387F8D83A1A
:109D90004FF0FF334B6042B100FA02F2C4F11404F9
:109DA000012000FA04F444EA02006B4AC0F3C43311
:109DB00002EB8303596F00F01F0302EB83035B6F19
:109DC00043EA0133C0F3441102EB8101C0F3842064
:109DD00002EB80004A6F43EA0213426F43EA022318
:109DE00083EA132282EA121202F00F020F2A79D1BB
:109DF000B3F5803F76D24F2D4FEA131304D1B7F855
:109E0000BC290132A7F8BC29D7F8D829B3F5606F6F
:109E100002F10102C7F8D82900F0A4800199A9F83D
:109E20000C304E4B5C2018EE102A00FB0B3018F063
:109E300053FB0BF1010BBBF1080F0AF1200A09F1EA
:109E400014097FF419AF0123012087F8D63A03B033
:109E5000BDEC028BBDE8F08F803399427FF670AF86
:109E6000A3EB0C029211541C3D4A82FB04C2A2EBEC
:109E7000E472012AB8BF0122904001241644013A3D
:109E800004FA02F210431C46226892B1226C002AA6
:109E90004ED0D4F88020002A4CD0D4F8C02004F54D
:109EA00080743AB1A142EFD89C4623463FE7C033C5
:109EB00043E74034A142F7D9E31A9B115A1C284BBF
:109EC00083FB02C3A3EBE273012BB8BF01239840CD
:109ED0001E440122013B02FA03F3184323469C4629
:109EE000234624E74F2D27D0D7F8D8390133C7F8B8
:109EF000D839D7F8D4390133C7F8D439002190E7DD
:109F00004033A3EB0E0E99424FEAAE1E3FF6F4AE7D
:109F100010B1013887F8D80A4F2D8AD1B7F8BE3969
:109F20000133A7F8BE3984E78033DEE6C033DCE6D0
:109F30008034BFE7C034BDE7B7F8BC390133A7F8B8
:109F4000BC39D7F8D8390133C7F8D839D1E700BFC1
:109F5000181C002098010020307006085C270020A3
:109F60005655555597F8402B02EB420207EBC202BB
:109F70005A4492F8ED2A0D2A7FF450AF80230199BC
:109F800089F81E304DE700BF2DE9F0412F4F07EB58
:109F9000401898F8A0340BB9BDE8F0818C2303FB7E
:109FA00000730E4693F82A2E88F88624002183F841
:109FB0002A1E0446450118F07FFCC0BB3D442448DE
:109FC000A5F8846400EB441018F03AF897F87F3055
:109FD000D5F89C24A3B1D5F88814D2F8A030012478
:109FE0008C4003F1C001420010F4004F90B202D146
:109FF0005A6822435A600C339942F4D1BDE8F0818B
:10A00000D5F88844D2F8A03004F11002012494401D
:10A0100003F1C001420010F4004F90B202D15A681F
:10A0200022435A600C339942F4D1BDE8F08197F88D
:10A03000403B03EB430307EBC303234493F8ED6A70
:10A04000002EBBD0012388F88634B7E7181C002007
:10A050009C20002010B504465CF0BCFA81B220467A
:10A06000BDE8104090E700BF2DE9F041244F254E98
:10A0700097F8902196F8403B9A423AD1D6F8805012
:10A08000002D12DD002496F87F601F48A0460134A1
:10A0900016B1037E012B27D002691368AC4243F04E
:10A0A000010300F580701360F1D1184B5B68C3F3B6
:10A0B0000803B3B9EFF311839BB91AF07DFFD7F80A
:10A0C0009441002C0BDD124A02EBC4041168938802
:10A0D0008889083203439BB294428B81F6D1BDE854
:10A0E000F0811AF007FEEAE780F8F080FEF766FAE2
:10A0F000D2E757F0B5FB0028C0D1BDE8F08100BF22
:10A10000102D0020181C00209C1C002000ED00E0F9
:10A11000A82E002010B57D4B7D4C93F8403B94F861
:10A1200090219A4240F0988194F8B821002A00F0DA
:10A13000EC8094F8B931002B40F0EC80D4F8BC11DD
:10A14000088820F080000004000C0880B4F8C001EA
:10A15000C862088880B240F0800008804B62B1F885
:10A160000CC0B4F8D00140EA0C0080B2012A88810A
:10A17000A4F8D03100F0C980D4F8D411088820F0B8
:10A1800080000004000C0880B4F8D801C862088878
:10A1900080B240F0800008804B62B1F80CC0B4F887
:10A1A000E80140EA0C0080B2022A8881A4F8E83174
:10A1B00000F0AB80D4F8EC11088820F08000000497
:10A1C000000C0880B4F8F001C862088880B240F042
:10A1D000800008804B62B1F80CC0B4F8000240EA7D
:10A1E0000C0080B2032A8881A4F8003200F08D8030
:10A1F000D4F80412088820F080000004000C0880C5
:10A20000B4F80802C862088880B240F08000088074
:10A210004B62B1F80CC0B4F8180240EA0C0080B2EE
:10A22000042A8881A4F818326FD0D4F81C12088848
:10A2300020F080000004000C0880B4F82002C862FE
:10A24000088880B240F0800008804B62B1F80CC0F2
:10A25000B4F8300240EA0C0080B2052A8881A4F8E4
:10A26000303252D0D4F83412088820F08000000434
:10A27000000C0880B4F83802C862088880B240F048
:10A28000800008804B62B1F80CC0B4F8480240EA84
:10A290000C0080B2062A8881A4F8483235D0D4F860
:10A2A0004C12088820F080000004000C0880B4F8EC
:10A2B0005002C862088880B240F0800008804B627B
:10A2C000B1F80CC0B4F8600240EA0C0080B2072A72
:10A2D0008881A4F8603218D0D4F86422B4F86802F7
:10A2E000118821F080010904090C1180D0621088C6
:10A2F000B4F8781280B240F08000108053629089E8
:10A30000014389B29181A4F8783210BD181C002055
:10A31000102D0020D4F8C431B4F8C8115960196860
:10A32000D4F8BC0141F00101196040F20D33A0F8EE
:10A330004830818989B241F48071012A8181E4D059
:10A34000D4F8DC11B4F8E0014860086840F001007E
:10A350000860D4F8D401A0F84830818989B241F46A
:10A360008071022A8181D0D0D4F8F411B4F8F801B8
:10A370004860086840F001000860D4F8EC01A0F8DB
:10A380004830818989B241F48071032A8181BCD02F
:10A39000D4F80C12B4F810024860086840F00100CC
:10A3A0000860D4F80402A0F84830818989B241F4E9
:10A3B0008071042A8181A8D0D4F82412B4F828022C
:10A3C0004860086840F001000860D4F81C02A0F85A
:10A3D0004830818989B241F48071052A818194D005
:10A3E000D4F83C12B4F840024860086840F001001C
:10A3F0000860D4F83402A0F84830818989B241F469
:10A400008071062A818180D0D4F85412B4F85802A1
:10A410004860086840F001000860D4F84C02A0F8D9
:10A420004830818989B241F48071072A81813FF4E3
:10A430006CAFD4F86C12B4F870224A600868D4F893
:10A44000642240F001000860A2F8483093899BB272
:10A4500043F48073938110BD57F002FA00287FF413
:10A4600063AE10BD70B5104ED6F8243E002B19DD3A
:10A4700006F28444002505E0D6F8243EAB4204F100
:10A4800020040FDD237F0135002BF5D0E068002884
:10A49000F2D0217D19F0C6FAD6F8243EAB4204F181
:10A4A0002004EFDC012070BD181C0020F8B590F8E6
:10A4B00071301C09013C042C0FD81B4E06EB4402E2
:10A4C0000546B2F8500003F00F0340FA03F2D2073A
:10A4D00003D595F87C70012F01D00120F8BD07FA53
:10A4E00003F3013B184034445BF080F894F85C209F
:10A4F0000E4C104454F8302004EBC0041069A388BB
:10A500001840EBD0EB6E002285F87C2093F82120D8
:10A510002046022119F072FC2A6E93899BB243F007
:10A52000080338469381F8BD307006080C230020DC
:10A53000F0B5D0F8805087682B6858493E6823F002
:10A5400001032B6000232B608D426B60AB60EB60DE
:10A550002B614FF0210383B0044600F160026B6170
:10A5600000F097804E4B9D425ED02846019251F0FC
:10A570008FFE019A002384F8543079790C290ED883
:10A58000DFE801F0650D0D0D5E0D0D0D570D0D0D84
:10A590000700B38B23F400631B041B0CB38330460A
:10A5A0001CF0DAF97B790C2B10D8DFE803F0690F87
:10A5B0000F0F600F0F0F570F0F0F0700B38B23F410
:10A5C00000631B041B0C43F40063B383402229681F
:10A5D000A369E06A6262334A03430A40216B134372
:10A5E0000B43D4E90D120B431343D4E90F120B4371
:10A5F0001343D4E913120B43134343F040032B607E
:10A60000D4E911316A690B4322F007021343A16AAE
:10A610006B61D4E907236960AA60EB602B6843F0A3
:10A6200010032B6003B0F0BD4FF4746143F8201C9D
:10A63000A0E7B38B23F008031B041B0CB383AEE726
:10A64000338B23F400631B041B0C3383A7E7338B8A
:10A6500023F008031B041B0C3383A0E7B38B23F008
:10A6600008031B041B0C43F00803B383AEE7338BD2
:10A6700023F400631B041B0C43F400633383A5E73E
:10A68000338B23F008031B041B0C43F008033383B4
:10A690009CE7054B3D2199606CE700BF10600240CC
:10A6A000286002403F801CF0006002402DE9F04F1E
:10A6B000DFF8B0B12DED028B9BF87F4085B034B947
:10A6C0000124204605B0BDEC028BBDE8F08FDBF81D
:10A6D000C439624F08EE103A1AF092FC97F8B03283
:10A6E0000290002B00F0B3810BF51D630BF628657B
:10A6F0000BF6443A002699460EE02846FFF718FF6D
:10A7000097F8B03201369E4205F18C050AF15C0AD9
:10A7100009F1140980F2A880D7F8B832029AD31A46
:10A7200003D4AA6D9342C0F27B818C2303FB06B352
:10A7300093F87C3E03F0FF020192002BDDD0AB6862
:10A74000A9891A68D5F880305B681FFA83FE93895F
:10A75000CEF1160E9BB223EA0103BEF1070F9381DF
:10A76000CBD9DBF8D8390133CBF8D839D5F88830D4
:10A7700003939C4600225CF8044B012190461BE0A9
:10A78000DCF80000B8F1140FA0EB04031DDC13F19A
:10A79000080448BF03F11704231108EB24180446EA
:10A7A000581E013102FA03F3012282408E4542EA2B
:10A7B00003020CF1040C08D38E45E1D8C8F115034F
:10A7C000DCF800404FF01508EAE7B8F1150F39D171
:10A7D0002348C2F38423C2F3441100EB830300EB4C
:10A7E0008101D3F8F430D1F8F4101B0243EA0113CD
:10A7F00002F01F0100EB8101C2F3C43200EB8202C0
:10A80000D1F8F410D2F8F4200B4343EA023383EA80
:10A81000132282EA121202F00F020F2A12D1C3F39E
:10A820000F134FF6FF7293420CD0B3F5606F00F038
:10A83000FE80A9F80C30019918EE102A504617F046
:10A840004BFE5AE7DBF8D4390133CBF8D439002E6C
:10A8500000F0DF8000230193EDE700BF102D002002
:10A8600030700608181C0020012200218BF8D62A1F
:10A87000C7F8B812002B3FF423AF9BF8381E8907A6
:10A8800000F1BD80DBF8301E086849798A40018CF0
:10A8900092B289B221EA02010184018C89B20A4391
:10A8A000012B02843FF40CAF9BF8C42E12F0020F70
:10A8B000DBF8BC2E10685479018C0CBF01220422F5
:10A8C000A24092B289B221EA02010184018C89B2CC
:10A8D0000A43022B02843FF4F3AE9BF8502F12F090
:10A8E000020FDBF8482F10685479018C0CBF01224D
:10A8F0000422A24092B289B221EA02010184018CB1
:10A9000089B20A43032B02843FF4DAAE9BF8DC2FB2
:10A91000DBF8D41F92070868497954BF012204224A
:10A920008A40018C92B289B221EA02010184018C31
:10A9300089B20A43042B02843FF4C2AE474A92F81C
:10A94000681011F0020F116E0C684D79208C0CBF4D
:10A9500001210421A94089B280B220EA01002084AB
:10A96000208C80B20143052B21843FF4A9AE92F8DC
:10A97000F41011F0020FD2F8EC100C684D79208C15
:10A980000CBF01210421A94089B280B220EA010054
:10A990002084208C80B20143062B21843FF490AEAA
:10A9A00092F8801111F0020FD2F878110C684D79ED
:10A9B000208C0CBF01210421A94089B280B220EA79
:10A9C00001002084208C80B20143082B21847FF475
:10A9D00077AE92F80C32D2F80422116850790A8CC2
:10A9E0009B074CBF0423012383409BB292B222EA0F
:10A9F00003020A840A8C92B213430B8460E6DBF8EC
:10AA0000302E10685479018C0422A24089B292B28F
:10AA100040E70399124858225CF08FFA01960AE742
:10AA20000024204605B0BDEC028BBDE8F08F9BF8FA
:10AA3000402B02EB42020BEBC202324492F8ED2AA9
:10AA40000D2A7FF4F6AE802389F81E30F3E601224A
:10AA50008BF8D62AC7F8B83233E600BF182C00208E
:10AA6000942600202DE9F843037D01681F2B04463E
:10AA700008D94868A3F120052022AA40024206D145
:10AA8000BDE8F883086820229A400242F8D0714A53
:10AA9000714E5268C6F8BC2296F8B921A569DFF854
:10AAA000D09112BB8C2202FB0592D2F8300ED2F864
:10AAB000A87ED0F800803868B2F834CE20F00100CB
:10AAC0003860B8F80C2092B222EA0C02A8F80C20E8
:10AAD00099F87F200ABB1F2B40F2A880A3F1200227
:10AAE00020239340CB60BDE8F8838C2202FB0592C3
:10AAF000D2F8302E5069D2F80080026822F00102AC
:10AB00000260B8F80C2022F480721204120CA8F82B
:10AB10000C2099F87F20002ADDD08C2303FB0593BD
:10AB20004E4AD3F8A87E3B6823F001033B60002324
:10AB30003B6097427B60BB60FB603B614FF0210351
:10AB40007B617ED0464B9F427FD0384651F0A0FBC0
:10AB50008C2303FB0593D6F8B822012183F87C1ED1
:10AB6000002A69D0B8F800303E499BB243F0800318
:10AB7000A8F800308C2303FB05F54FF0FF33294480
:10AB8000C8F82C30404651F0D9FD09EB05030022EE
:10AB9000D3F8540EC3F84C2ED3F8402E3968024334
:10ABA000D3F8580E0243D3F85C0E0243D3F8600E7C
:10ABB0000243D3F8640E0243D3F8680E0243D3F87D
:10ABC000740E0243D3F8780E02432748084002432C
:10ABD0003A607969D3F86C2ED3F8700E21F0070132
:10ABE00002430A437A61D3F8502E7A60D3F8442E98
:10ABF000BA60D3F8482EFA60D3F8A82E1621516017
:10AC0000116841F001011160D3F8302EB3F8343EE1
:10AC1000126891890B439BB20E4993814B68C6F829
:10AC2000C032237D21681F2B3FF658AF202202FA45
:10AC300003F38B60BDE8F8831AF0E2F9C6F8B802B6
:10AC400090E70A4B3D229A6082E74FF4746243F822
:10AC5000202C7DE7001000E0102D00201060024045
:10AC600028600240B42A00203F801CF000600240AF
:10AC7000181C0020F8B5054600F11004FEF730FE60
:10AC800095F8D830072B5BD195F81D310226002BA3
:10AC900058D1374680226B21204617F0B9FF642037
:10ACA0001AF0AEFB07226821204617F0B1FF64209E
:10ACB0001AF0A6FB00226B21204617F0A9FF6420A2
:10ACC0001AF09EFB01226B21204617F0A1FF0F20F6
:10ACD0001AF096FBFA001B21204617F099FF0F206F
:10ACE0001AF08EFBF2001C21204617F091FF0F2076
:10ACF0001AF086FB2846FDF7DBF91A2102462046AA
:10AD000017F086FF0F201AF07BFB95F82021192100
:10AD1000204617F07DFF64201AF072FB10223721C5
:10AD2000204617F075FF0F201AF06AFB204601221B
:10AD3000382117F06DFFBDE8F8400F201AF060BB16
:10AD40000326A6E70327A5E72DE9F3411446984615
:10AD50000DF10702012306460F4617F0BBFF88B12D
:10AD600002201AF085F99DF8075025EA040444EA08
:10AD70000802394630468DF8072017F049FF089839
:10AD80001AF03EFB02B0BDE8F08173B5642300F118
:10AD90001004009301231A46054612212046FFF7AE
:10ADA000D3FF02220D21204617F032FF01201AF0B6
:10ADB00027FB02220E21204617F02AFF01201AF05D
:10ADC0001FFB74221021204617F022FF01201AF0E9
:10ADD00017FBAC221121204617F01AFF0126012093
:10ADE0001AF00EFB44237C22122120460096FFF726
:10ADF000ABFF06231A46132120460096FFF7A4FF57
:10AE000000231722152120460096FFF79DFF0223FD
:10AE1000204600961A461821FFF796FF95F8210163
:10AE200088B119F08FFA044608B12723C380294658
:10AE3000084B41F80C3F002320461A4657F098FA79
:10AE4000204618F007FC044817F09CFDA88202B0C9
:10AE500070BD00BF7D860008809698007522F421A1
:10AE600017F0D6BE7B22F42117F0D2BE37B500F121
:10AE70000C040546C06859F033F900220A21204627
:10AE800017F0C6FE14201AF0BBFA0F220A21204642
:10AE900017F0BEFE0A201AF0B3FA01AA032310210C
:10AEA000204617F017FF0A201AF0AAFA9DF804307E
:10AEB0008033A5F8FA309DF805308033A5F8FC30D2
:10AEC0009DF806308033A5F8FE3000220A21204686
:10AED00017F09EFE0A201AF093FA0DF103020123E7
:10AEE0000221204617F0F6FE01230DF1030209218D
:10AEF000204617F0EFFE11220A21204617F088FEA7
:10AF0000012003B030BD37B500F10C0504467022B6
:10AF10000021284617F07CFE20220121284617F048
:10AF200077FE00220221284617F072FE64201AF0F4
:10AF300067FA94F8F80098B119F004FA08B12923D7
:10AF4000C3802146084B41F8083F00231A46019070
:10AF500057F00EFA019818F07DFB019818F07AFB73
:10AF6000012003B030BD00BF5194000810B500F1BE
:10AF70000C04C06859F0B4F800222121204617F0D3
:10AF800047FEFC222021204617F042FE40222421C9
:10AF9000204617F03DFE0C222321204617F038FEF4
:10AFA00000222221204617F033FE64201AF028FAEE
:10AFB000012010BD10B500F10C04C06859F090F8E4
:10AFC00001220B21204617F023FE20B11D2209216A
:10AFD000204617F01DFE00F0010010BD38B500F14D
:10AFE00010040546194817F0CDFCA8822846FEF744
:10AFF00077FC01226B21204617F0C4FD78201AF05F
:10B0000037F8204618221B2117F0BCFD20461822D5
:10B010001C2117F0B7FD2846FDF74AF81A21024611
:10B02000204617F0AFFD95F820212046192117F092
:10B03000A9FD20461022372117F0A4FD2046012249
:10B04000BDE83840382117F09DBD00BF00127A00DE
:10B0500010B50446FFF70EFE1022A0186A2117F063
:10B0600091FD64201AF0CCF9044817F08BFCA08203
:10B07000BDE81040012019F0FBBF00BF002D3101D9
:10B080002DE9F04190F81E31032B8CB004464ED0D0
:10B0900090F8DC00D4F8A070012800F08E8016D85B
:10B0A000D4F89C3000221A605A609A609A81D4F8D1
:10B0B000E0300522B3F57A7FC4F8F0202BD80125C3
:10B0C0000323284684F8DC300CB0BDE8F081023858
:10B0D000012827D8D4F89C30554E92221A700FCEF2
:10B0E00002AD0FC5D4F89C300293D4F8A03003937E
:10B0F0000FCE0FC596E8030004F1100885E80300A1
:10B1000002A9404617F0B6FC23695A6A002A4BD0C0
:10B11000904535D0FEE723691A7B002A66D10223C9
:10B1200084F8DC30012528460CB0BDE8F081414DA3
:10B13000414910300A2305F53172019017F0D0FC17
:10B14000B5F8C6320198052B35DDB5F9C812D5F82A
:10B15000C862B5F9CA72B5F9CC2211F5004F3DD0DD
:10B16000C4F8D060A4F8D4200125063B002BDAD027
:10B17000B0227E2117F006FD28460CB0BDE8F08114
:10B180001A6A002AFCD1B7F90230A4F8D030B7F916
:10B190000430A4F8D230B7F90630A4F8D430012531
:10B1A00028460CB0BDE8F0811A6A002AEBD01A6A72
:10B1B000002AF9D1E7E70025D8E7B7F90830A4F865
:10B1C000D030B7F90A30A4F8D230B7F90C30A4F86F
:10B1D000D430054628460CB0BDE8F08117F5004F85
:10B1E000BED112F5004FBBD10025BEE75B69002B35
:10B1F00095D094F89850002D91D0D4F89C30C4F894
:10B20000A4408C221A70D4F8A020C4F8F8200E2292
:10B2100001230A49C4F8FC20D4F89C20C4F8041186
:10B22000C4F8F42084F8003184F8DC307BE700BFF8
:10B2300030700608102D0020A00100204186000873
:10B240002DE9F04F034683B000F1100593F81E314D
:10B250000090B6227E212846019317F093FCB64C4D
:10B26000B64F4FF064094FF01008AB467B68C3F34C
:10B270000803002B40F05585EFF31183002B40F0BD
:10B28000508519F099FE06464FF0E02A05E019F0C6
:10B2900093FE801BB0F57A7F2FD27B68C3F308033F
:10B2A0001BB9EFF31183002BF1D0EFF3118388F377
:10B2B0001288DAF81800DAF8102012F4803F4FF004
:10B2C00001021CBFC4F8C829DAF81800D4F8C4C9B0
:10B2D000D4F8C829DBB283F31188D4F8CC594FF4E1
:10B2E0007A7101FB05F36244181AB0FBF5F001FB1B
:10B2F0000200801BB0F57A7FCFD3B9F10109B5D137
:10B30000009B9B695D4613B11A689B8853838B4BE6
:10B310005B68C3F30803002B40F04185EFF3118312
:10B32000002B40F03C8519F047FE8046DFF80CA268
:10B3300010274FF0E02906E019F03EFEA0EB0800D0
:10B34000B0F57A7F32D2DAF80430C3F308031BB9C0
:10B35000EFF31183002BEFD0EFF3118387F3128803
:10B36000D9F818C0D9F81020D6034FF0010103D541
:10B37000C4F8C819D9F818C0D4F8C4E9D4F8C82951
:10B38000DBB283F31188D4F8CC694FF47A7101FBF6
:10B3900006F002EB0E03A0EB0C00B0FBF6F001FB95
:10B3A0000300A0EB0800B0F57A7FCCD3009B9B692B
:10B3B00013B11A689B881383604F4FF00A094FF04E
:10B3C0001008AB467B68C3F30803002B40F0AE8443
:10B3D000EFF31183002B40F0A98419F0EDFD064630
:10B3E0004FF0E02A05E019F0E7FD801BB0F57A7F09
:10B3F0002FD27B68C3F308031BB9EFF31183002B33
:10B40000F1D0EFF3118388F31288DAF81800DAF834
:10B41000102012F4803F4FF001021CBFC4F8C8296D
:10B42000DAF81800D4F8C4C9D4F8C829DBB283F319
:10B430001188D4F8CC594FF47A7101FB05F36244BA
:10B44000181AB0FBF5F001FB0200801BB0F57A7F03
:10B45000CFD3B9F10109B5D14A467C21584617F03E
:10B4600091FB364B5B68C3F308035D46002B40F04D
:10B470009184EFF31183002B40F08C8419F09CFD34
:10B480008046DFF8B8A010274FF0E02906E019F059
:10B4900093FDA0EB0800B0F57A7F32D2DAF80430E1
:10B4A000C3F308031BB9EFF31183002BEFD0EFF3C5
:10B4B000118387F31288D9F818C0D9F81020D00367
:10B4C0004FF0010103D5C4F8C819D9F818C0D4F851
:10B4D000C4E9D4F8C829DBB283F31188D4F8CC6965
:10B4E0004FF47A7101FB06F002EB0E03A0EB0C00A7
:10B4F000B0FBF6F001FB0300A0EB0800B0F57A7F8B
:10B50000CCD300225921284617F03CFB0B4B5B683B
:10B51000C3F30803002B40F03884EFF31183002BB2
:10B5200040F0338419F048FD8046DFF810A0102762
:10B530004FF0E0290BE000BF181C002000ED00E0F8
